:020000040800F2
:1000000000060020E1010008E3010008E301000808
:10001000E3010008E3010008E3010008E301000830
:10002000E3010008E3010008E3010008A52F000830
:10003000E3010008E3010008E3010008E301000810
:10004000E3010008E3010008E3010008E301000800
:10005000E3010008E3010008E3010008E3010008F0
:10006000E3010008E3010008E3010008E3010008E0
:10007000E3010008E3010008E3010008E3010008D0
:10008000E3010008E3010008E3010008E3010008C0
:10009000E3010008E3010008E3010008E3010008B0
:1000A000E3010008E3010008E3010008E3010008A0
:1000B000E3010008E3010008E3010008E301000890
:1000C000E3010008E3010008E3010008E301000880
:1000D000E3010008E3010008E3010008E301000870
:1000E000E3010008E3010008E3010008E301000860
:1000F000E3010008E3010008E3010008E301000850
:10010000E3010008E301000855320008E30100089C
:10011000E3010008E3010008E3010008E30100082F
:10012000E3010008E3010008E3010008E30100081F
:10013000E3010008E3010008E3010008E30100080F
:10014000E3010008E3010008E30100084D2700086F
:10015000E3010008E3010008E3010008E3010008EF
:10016000E3010008E3010008E3010008E3010008DF
:10017000E3010008E3010008E3010008E3010008CF
:10018000E3010008E3010008E3010008E3010008BF
:10019000E3010008E3010008E3010008E3010008AF
:1001A000E3010008E3010008E3010008E30100089F
:1001B000E3010008E3010008E3010008E30100088F
:1001C000E3010008E3010008E3010008E30100087F
:1001D000E3010008E3010008E3010008E30100086F
:1001E00002E000F000F8FEE772B6374880F30888B6
:1001F000364880F3098836483649086040F20000E6
:10020000CCF200004EF63471CEF200010860BFF36C
:100210004F8FBFF36F8F40F20000C0F2F0004EF638
:100220008851CEF200010860BFF34F8FBFF36F8F8C
:100230004FF00000E1EE100A4EF63C71CEF20001E4
:100240000860062080F31488BFF36F8F01F046FF2B
:1002500002F046FE4FF055301F491B4A91423CBF09
:1002600041F8040BFAE71D49184A91423CBF41F896
:10027000040BFAE71A491B4A1B4B9A423EBF51F83E
:10028000040B42F8040BF8E700201849184A914281
:100290003CBF41F8040BFAE701F024FF02F074FEC2
:1002A000144C154DAC4203DA54F8041B8847F9E7A7
:1002B00000F042F8114C124DAC4203DA54F8041B22
:1002C0008847F9E701F00CBF00060020002200205B
:1002D0000000000808ED00E00000002000060020FB
:1002E000D0350008002200204022002040220020BB
:1002F000E02D0020E0010008E0010008E001000816
:10030000E00100082DE9F04F2DED108AC1F80CD066
:10031000C3689D46BDEC108ABDE8F08F002383F3CF
:1003200011882846A047002001F084FAFEE701F07A
:100330000DFA00DFFEE7000038B500F0A9FB01F080
:1003400099FE054601F0BCFE0446C8B90E4B9D421D
:1003500018D001339D4218BF044641F2883504BFCE
:1003600001240025002001F08FFE0CB100F072F88E
:1003700000F006FD284600F0C1F800F06BF8F9E740
:100380000025EFE70546EDE7010007B008B500F0EE
:1003900051FBA0F120035842584108BD07B5042184
:1003A00001900DEB010000F063FB03B05DF804FB6E
:1003B00038B5302383F31188174803680BB101F077
:1003C00005FB164A144800234FF47A7101F0F4FA41
:1003D000002383F31188124C236813B12368013B77
:1003E0002360636813B16368013B63600D4D2B7834
:1003F00033B963687BB9022000F022FC32236360CA
:100400002B78032B07D163682BB9022000F018FC6E
:100410004FF47A73636038BD40220020B1030008B6
:100420006023002058220020084B187003280CD8A5
:10043000DFE800F008050208022000F0F1BB02200E
:1004400000F0DCBB024B00225A60704758220020AB
:1004500060230020244B254A10B51C461968013141
:1004600040D004339342F9D16268214B9A4239D982
:10047000204B9B6803F1006303F580339A4231D22D
:10048000002000F01FFB0220FFF7CEFF1A4B1A6C72
:1004900000221A64196E1A66196E596C5A64596EE4
:1004A0005A665A6E5A6942F080025A615A6922F0BD
:1004B00080025A615A691A6942F000521A611A6937
:1004C00022F000521A611B6972B64FF0E02330210E
:1004D000C3F8084DD4E9003281F311889D4683F3B7
:1004E0000888104710BD00BF000001082000010867
:1004F000FFFF000800220020003802402DE9F04FE5
:1005000093B0DFF8049302902022FF210AA8D9F8C3
:10051000085000F0DFFBB34A1378A3B9B2480121B9
:1005200003601170302383F3118803680BB101F06D
:100530004DFAAE4AAC4800234FF47A7101F03CFA10
:10054000002383F31188029B13B1A94B029A1A600E
:10055000A84A029C1378032B1EBF00231370A44AE1
:100560004FF0000B18BF5360CDF804B05E46DA467A
:10057000012000F055FB24B19D4B1B68002B00F0BF
:10058000F981002000F056FA071EF4DB012000F08C
:1005900035FBA7F121001628EAD801A353F820F073
:1005A000FD05000819060008A706000871050008E7
:1005B00071050008710500082B070008EB0800080A
:1005C0000D080008690800088F080008B508000831
:1005D00071050008C7080008710500083309000804
:1005E00085060008710500087B0900080906000857
:1005F0008506000871050008690800080220FFF759
:10060000C5FE002840F0E381029B7B48BBF1000F50
:1006100008BF1C46022140E04FF47A7000F00AFA4D
:10062000071EF1DB0220FFF7B1FE0028ECD0013FEE
:10063000052F00F2CE81DFE807F003070A0D103323
:100640000520FFF7ABFE14E0D9F80000F9E7D9F870
:100650000400F6E7D9F80800F3E74FF01C0840461D
:1006600000F032FA08F10408FFF798FEB8F12C0FF9
:10067000F5D1019B012000FA07F71F43FBB201935C
:100680004FF0000A00F072FB2EB1019B03F00B0348
:100690000B2B08BF00245948022100F0E9F967E755
:1006A000D9F80C00CDE7002EAED0019B03F00B0370
:1006B0000B2BA9D10220FFF769FE07460028A3D023
:1006C000012000F0FFF90220FFF7AEFE00261FFA1E
:1006D00086F8404600F006FA044670B10021404614
:1006E00000F010FA01360028F1D1BB460446444818
:1006F000022100F0BDF93E463AE70120FFF794FEE3
:100700002546D9F80830AB4207D9284600F0DCF975
:10071000013040F061810435F3E7364B00251D7050
:10072000334BBB465D603E46ACE7002E3FF46CAFFA
:10073000019B03F00B030B2B7FF466AF0220FFF746
:1007400073FE322000F076F9B0F10008FFF65CAFDE
:1007500018F003077FF458AFD9F8082008EB050319
:1007600093423FF651AFB8F5807F3FF74DAF254B31
:100770000393B8450BDD4FF47A7000F05BF9002865
:10078000FFF642AF039B013703F8010BF0E7C820E7
:10079000FFF7FCFD074600283FF436AF1F2D11D8A8
:1007A000C5F1200242450AAB25F0030028BF4246AE
:1007B00014490392184400F067FA039A1148FF2184
:1007C00000F088FA4FEAA8030E490393C8F38702A2
:1007D000284600F087FA0646002888D0039B05EBE0
:1007E00083054FE75C23002040220020B10300086E
:1007F0006023002058220020A8320008A032000800
:10080000A43200085C220020002200200220FFF712
:10081000BDFD00283FF4F8AE00F0A0F900283FF439
:10082000F3AE0027B846D9F80830BB4218D91F2FBD
:1008300011D80A9B01330ED027F0030312AA1344E8
:1008400053F8203C05934046042205A900F0BEFA67
:1008500004378046E7E7384600F036F90590F2E7BE
:100860004046FFF79BFD0DE70023642105A8059393
:1008700000F0F4F800287FF4C7AE0220FFF786FDF1
:1008800000283FF4C1AE059800F050F9E9E70023D5
:10089000642105A8059300F0E1F800287FF4B4AEC8
:1008A0000220FFF773FD00283FF4AEAE059800F07C
:1008B0004DF9D6E70220FFF769FD00283FF4A4AE0A
:1008C00000F05CF9CDE70220FFF760FD00283FF45F
:1008D0009BAE05A9142000F057F90390FFF75EFDC9
:1008E000039905A800F0C4F8CCE6322000F0A2F885
:1008F000071EFFF689AEBB077FF486AED9F8082045
:1009000007EB0A0393423FF67FAE0220FFF73EFD5E
:1009100000283FF479AE27F003075744BA453FF467
:10092000B1AE504600F0D0F8FFF738FD0AF1040AE6
:10093000F4E74FF47A70FFF729FD00283FF464AE26
:1009400000F00CF9002849D00A9B01330BD0082293
:100950000AA9002000F0C6F900283FD02022FF217C
:100960000AA800F0B7F91E48022100F081F81D48DE
:1009700000F066FF13B0BDE8F08F002E3FF444AEE8
:10098000019B03F00B030B2B7FF43EAE002364218D
:1009900005A8059300F062F8074600287FF434AEFE
:1009A0000220FFF7F3FC804600283FF42DAE022121
:1009B0000B4800F05DF841F2883000F041FF0598E7
:1009C00000F002FA464600F0D1F93C46D0E5064672
:1009D00058E64FF0000A17E6BB4688E6374686E63B
:1009E000A0320008A086010070B50F4B1B780133C0
:1009F000DBB2012B0C4611D80C4D29684FF47A73E9
:100A00000E6AA2FB0332014622462846B0478442C2
:100A100004D1074B00221A70012070BD4FF4FA7008
:100A200000F00EFF0020F8E710220020082600202A
:100A30009423002007B50023024601210DF1070091
:100A40008DF80730FFF7D0FF20B19DF8070003B005
:100A50005DF804FB4FF0FF30F9E700000A4608B5E7
:100A60000421FFF7C1FF80F00100C0B2404208BD81
:100A700030B4054C2368DD69044B0A46AC46014698
:100A8000204630BC604700BF08260020A086010039
:100A900070B501F0F5F9094E094D30800024286841
:100AA0003388834208D901F0E5F92B680444013307
:100AB000B4F5803F2B60F2D370BD00BF96230020B9
:100AC0006823002001F08ABA00F1006000F5803050
:100AD0000068704700F10060920000F5803001F07E
:100AE00015BA0000054B1A68054B1B889B1A8342F8
:100AF00002D9104401F0BEB90020704768230020DD
:100B00009623002038B5084D044629B128682044B2
:100B1000BDE8384001F0CEB92868204401F0B2F9B0
:100B20000028F3D038BD00BF6823002010F0030375
:100B30000AD1B0F5047F05D200F10050A0F51040B5
:100B4000D0F80038184670470023FBE700F100504A
:100B5000A0F51040D0F8100A70470000064991F83F
:100B6000243033B10023086A81F824300822FFF7CB
:100B7000B1BF0120704700BF6C230020014B1868F3
:100B8000704700BF002004E070B5194B1D68194B79
:100B90000138C5F30B0408442D0C04221E88A6421C
:100BA0000BD15C680A46013C824213460FD214F90D
:100BB000016F4EB102F8016BF6E7013A03F1080349
:100BC000ECD181420B4602D22C2203F8012B0A4AB7
:100BD00005241688AE4204D1984284BF967803F863
:100BE000016B013C02F10402F3D1581A70BD00BF41
:100BF000002004E0EC320008D8320008022804D1BA
:100C0000054B4FF400229A6170470128FCD1034B39
:100C10004FF40032F7E700BF001402400008024022
:100C2000022803D1044B08229A6170470128FCD1A5
:100C3000024B0222F8E700BF001402400008024005
:100C4000022805D1064A536983F0080353617047AF
:100C50000128FCD1034A536983F00203F6E700BF81
:100C6000001402400008024070B504464FF47A7642
:100C70004CB1412C254628BF412506FB05F000F06C
:100C8000DFFD641BF4E770BD10B50023934203D071
:100C9000CC5CC4540133F9E710BD000010B5013835
:100CA00010F9013F3BB191F900409C4203D11AB1C8
:100CB0000131013AF4E71AB191F90020981A10BDF8
:100CC0001046FCE703460246D01A12F9011B002920
:100CD000FAD1704702440346934202D003F8011B45
:100CE000FAE770472DE9F8431F4D144695F8242084
:100CF0000746884652BBDFF870909CB395F82430C5
:100D00002BB92022FF2148462F62FFF7E3FF95F819
:100D10002400C0F10802A24228BF2246D6B24146B2
:100D2000920005EB8000FFF7AFFF95F82430A41B7D
:100D30001E44F6B2082E17449044E4B285F82460AD
:100D4000DBD1FFF70BFF0028D7D108E02B6A03EBBC
:100D500082038342CFD0FFF701FF0028CBD10020D0
:100D6000BDE8F8830120FBE76C230020024B1A78D2
:100D7000024B1A70704700BF9423002010220020FD
:100D800010B50E4C0E4800F0B1F821460C4800F0AA
:100D9000D9F82468626D936B23F4002393634FF4B6
:100DA0007A70FFF761FF0749204600F0D1F9626DC4
:100DB000936B43F40023936310BD00BFB43300086A
:100DC00008260020BC3300087047000030B5094DEC
:100DD0000A4491420DD011F8013B5840082340F3DA
:100DE0000004013B2C4013F0FF0384EA5000F6D1CD
:100DF000EFE730BD2083B8ED02684368114301601E
:100E000003B118477047000013B5446BD4F894340D
:100E10001A681178042915D1217C022912D1197977
:100E2000128901238B4013420CD101A904F14C001B
:100E300001F00CFFD4F89444019B2179024620680C
:100E400000F0D0F902B010BD143001F08FBE0000E8
:100E50004FF0FF33143001F089BE00004C3001F038
:100E600061BF00004FF0FF334C3001F05BBF00006A
:100E7000143001F05DBE00004FF0FF31143001F07E
:100E800057BE00004C3001F02DBF00004FF0FF3284
:100E90004C3001F027BF00000020704710B5D0F89B
:100EA00094341A6811780429044617D1017C022968
:100EB00014D15979528901238B4013420ED1143039
:100EC00001F0F0FD024648B1D4F894444FF4807329
:100ED00061792068BDE8104000F072B910BD0000D3
:100EE000406BFFF7DBBF0000704700007FB5124B7F
:100EF000036000234360C0E90233012502260F4B43
:100F0000057404460290019300F18402294600967C
:100F10004FF48073143001F0A1FD094B0294CDE928
:100F2000006304F523724FF48073294604F14C00EA
:100F300001F068FE04B070BD0C330008E10E00083B
:100F4000090E00080B68302282F311880A7903EB3E
:100F5000820290614A79093243F822008A7912B1FB
:100F600003EB820398610223C0F8941403740020F9
:100F700080F311887047000038B5037F044613B131
:100F800090F85430ABB9201D01250221FFF734FF42
:100F900004F1140025776FF0010100F079FC84F86A
:100FA000545004F14C006FF00101BDE8384000F0EE
:100FB0006FBC38BD10B5012104460430FFF71CFF9B
:100FC0000023237784F8543010BD000038B5044660
:100FD0000025143001F05AFD04F14C00257701F092
:100FE00029FE201D84F854500121FFF705FF2046FB
:100FF000BDE83840FFF752BF90F8443003F060037B
:10100000202B07D190F84520212A4FF0000303D868
:101010001F2A06D800207047222AFBD1C0E90E33D0
:1010200003E0034A82630722C2630364012070471E
:101030001122002037B5D0F894341A6811780429A9
:1010400004461AD1017C022917D11979128901238A
:101050008B40134211D100F14C05284601F0AAFE45
:1010600058B101A9284601F0F1FDD4F89444019B40
:1010700021790246206800F0B5F803B030BD0000C9
:10108000F0B500EB810385B09E6904460D46FEB1C4
:10109000302383F3118804EB8507301D0821FFF707
:1010A000ABFEFB685B691B6806F14C001BB101904D
:1010B00001F0DAFD019803A901F0C8FD024648B12C
:1010C000039B2946204600F08DF8002383F3118806
:1010D00005B0F0BDFB685A691268002AF5D01B8A7A
:1010E000013B1340F1D104F14402EAE7093138B57C
:1010F00050F82140DCB1302383F31188D4F89424D4
:101100001368527903EB8203DB689B695D6845B124
:1011100004216018FFF770FE294604F1140001F065
:10112000CBFC2046FFF7BAFE002383F3118838BDBD
:101130007047000001F02AB8012303700023C0E9C2
:101140000133C36183620362C36243620363704716
:1011500038B50446302383F311880025C0E90355D0
:10116000C0E90555416001F021F80223237085F3A1
:101170001188284638BD000070B500EB8103054694
:101180005069DA600E46144618B110220021FFF7AC
:10119000A1FDA06918B110220021FFF79BFD314687
:1011A0002846BDE8704001F0CBB80000826802F02C
:1011B000011282600022C0E90422826101F04CB970
:1011C000F0B400EB81044789E4680125A4698D40EF
:1011D0003D43458123600023A2606360F0BC01F0C1
:1011E00067B90000F0B400EB81040789E4680125C9
:1011F00064698D403D43058123600023A2606360E4
:10120000F0BC01F0E1B9000070B5022300250446EE
:101210000370C0E90255C0E90455C564856180F8D2
:10122000345001F029F863681B6823B12946204631
:10123000BDE87040184770BD0378052B10B5044613
:101240000AD080F850300523037043681B680BB147
:10125000042198470023A36010BD000001780529F0
:1012600006D190F85020436802701B6803B11847FC
:101270007047000070B590F83430044613B1002375
:1012800080F8343004F14402204601F007F9636825
:101290009B68B3B994F8443013F0600535D0002151
:1012A000204601F0A7FB0021204601F099FB63686E
:1012B0001B6813B1062120469847062384F8343072
:1012C00070BD204698470028E4D0B4F84A30E26B5D
:1012D0009A4288BFE36394F94430E56B002B4FF0EA
:1012E000300380F20381002D00F0F280092284F89F
:1012F000342083F311880021D4E90E232046FFF720
:1013000071FF002383F31188DAE794F8452003F096
:101310007F0343EA022340F20232934200F0C58089
:1013200021D8B3F5807F48D00DD8012B3FD0022BB8
:1013300000F09380002BB2D104F14C02A263022290
:10134000E2632364C1E7B3F5817F00F09B80B3F5CE
:10135000407FA4D194F84630012BA0D1B4F84C3092
:1013600043F0020332E0B3F5006F4DD017D8B3F568
:10137000A06F31D0A3F5C063012B90D8636894F8B7
:1013800046205E6894F84710B4F848302046B047CD
:10139000002884D04368A3630368E3631AE0B3F5CD
:1013A000106F36D040F6024293427FF478AF5C4B28
:1013B000A3630223E3630023C3E794F84630012BC1
:1013C0007FF46DAFB4F84C3023F00203C4E90E553E
:1013D000A4F84C30256478E7B4F84430B3F5A06F36
:1013E0000ED194F8463084F84E30204600F09CFF31
:1013F00063681B6813B101212046984703232370BB
:101400000023C4E90E339CE704F14F03A3630123D7
:10141000C3E72378042B10D1302383F311882046AF
:10142000FFF7C4FE85F311880321636884F84F50E9
:1014300021701B680BB12046984794F84630002B6A
:10144000DED084F84F300423237063681B68002BC0
:10145000D6D0022120469847D2E794F848301D069E
:1014600003F00F0120460AD501F00AF8012804D044
:1014700002287FF414AF2B4B9AE72B4B98E700F030
:10148000F1FFF3E794F84630002B7FF408AF94F8AF
:10149000483013F00F01B3D01A06204602D501F0F0
:1014A000BDFAADE701F0B0FAAAE794F84630002B98
:1014B0007FF4F5AE94F8483013F00F01A0D01B066E
:1014C000204602D501F096FA9AE701F089FA97E7EB
:1014D000142284F8342083F311882B462A462946A7
:1014E0002046FFF76DFE85F31188E9E65DB1152210
:1014F00084F8342083F311880021D4E90E23204698
:10150000FFF75EFEFDE60B2284F8342083F311889A
:101510002B462A4629462046FFF764FEE3E700BF34
:101520003C330008343300083833000838B590F8ED
:1015300034300446002B3ED0063BDAB20F2A34D8B2
:101540000F2B32D8DFE803F0373131082232313146
:101550003131313131313737C56BB0F84A309D42C6
:1015600014D2C3681B8AB5FBF3F203FB12556DB9A5
:10157000302383F311882B462A462946FFF732FE93
:1015800085F311880A2384F834300EE0142384F89C
:101590003430302383F3118800231A46194620463D
:1015A000FFF70EFE002383F3118838BD036C03B1EF
:1015B00098470023E7E70021204601F01BFA0021AD
:1015C000204601F00DFA63681B6813B1062120461E
:1015D00098470623D7E7000010B590F83430142B55
:1015E000044629D017D8062B05D001D81BB110BD51
:1015F000093B022BFBD80021204601F0FBF900211A
:10160000204601F0EDF963681B6813B106212046FE
:101610009847062319E0152BE9D10B2380F83430C5
:10162000302383F3118800231A461946FFF7DAFDA9
:10163000002383F31188DAE7C3689B695B68002B9A
:10164000D5D1036C03B19847002384F83430CEE73A
:1016500000230375826803691B6899689142FBD275
:101660005A68036042601060586070470023037539
:10167000826803691B6899689142FBD85A680360C5
:10168000426010605860704708B50846302383F305
:1016900011880B7D032B05D0042B0DD02BB983F3C0
:1016A000118808BD8B6900221A604FF0FF338361F7
:1016B000FFF7CEFF0023F2E7D1E9003213605A6052
:1016C000F3E70000FFF7C4BF38B50A4BDD681C68BC
:1016D000287522681A605360DC60A3680122934277
:1016E000227501D100F0F6FC29462046BDE83840BD
:1016F000FEF708BE9823002030B50C4BDD684B1C6C
:1017000087B004460FD02B46094A684600F054F9CA
:101710002046FFF7D9FF009B13B1684600F056F949
:10172000A86907B030BDFFF7CFFFF9E79823002085
:1017300089160008044B1A68DB6890689B68984219
:1017400094BF0020012070479823002038B50B4B30
:101750001C68DD6822681A60536001222275DC6013
:10176000AB68934201D100F0B7FC2846FFF77EFF3B
:1017700001462046BDE83840FEF7C4BD982300204E
:1017800038B5074C074908480123002523706560D8
:1017900001F04EFB0223237085F3118838BD00BF92
:1017A00000260020443300089823002000F044B9AC
:1017B000034A516853685B1A9842FBD8704700BFD0
:1017C000001000E08B60022308618B82084670479E
:1017D0008368A3F1840243F8142C026943F8442C73
:1017E000426943F8402C094A43F8242CC26843F864
:1017F000182C022203F80C2C002203F80B2C044AAC
:1018000043F8102CA3F12000704700BF1D0300080F
:101810009823002008B5FFF7DBFFBDE80840FFF77D
:1018200051BF0000024BDB6898610F20FFF74CBFEF
:1018300098230020302383F31188FFF7F3BF0000C3
:1018400008B50146302383F311880820FFF754FFC1
:10185000002383F3118808BD064BDB6839B1426869
:1018600018605A60136043600420FFF745BF4FF0D3
:10187000FF307047982300200368984206D01A680A
:101880000260506099611846FFF71CBF7047000066
:1018900038B504460D462068844200D138BD03683F
:1018A00023605C608561FFF70DFFF4E710B5036806
:1018B0009C68A2420CD85C688A600B604C60216016
:1018C000596099688A1A9A604FF0FF33836010BD9F
:1018D0001B68121BECE700000A2938BF0A2170B50B
:1018E00004460D460A26601901F09AFA01F082FAC0
:1018F000041BA54203D8751C2E460446F3E70A2EA6
:1019000004D9BDE87040012001F0D2BA70BD0000DA
:10191000F8B5144B0D46D96103F1100141600A2A54
:101920001969826038BF0A22016048601861A818EE
:10193000144601F065FA0A2701F05CFA431BA34242
:10194000064606D37C1C281901F06AFA274635465C
:10195000F2E70A2F04D9BDE8F840012001F0A8BA47
:10196000F8BD00BF98230020F8B506460D4601F0EB
:1019700041FA0F4A134653F8107F9F4206D12A4678
:1019800001463046BDE8F840FFF7C2BFD169BB68E9
:10199000441A2C1928BF2C46A34202D92946FFF726
:1019A0009BFF224631460348BDE8F840FFF77EBF63
:1019B00098230020A823002010B4C0E903230023AB
:1019C0005DF8044B4361FFF7CFBF000010B5194C21
:1019D000236998420DD0D0E90032816813605A60C3
:1019E0009A680A449A60002303604FF0FF33A361B2
:1019F00010BD2346026843F8102F53600022026096
:101A000022699A4203D1BDE8104001F003BA9368FD
:101A100081680B44936001F0EDF92269E1699268F5
:101A2000441AA242E4D91144BDE81040091AFFF754
:101A300053BF00BF982300202DE9F047DFF8BC809A
:101A400008F110072C4ED8F8105001F0D3F9D8F84F
:101A50001C40AA68031B9A423ED81444D5E90032C0
:101A60004FF00009C8F81C4013605A60C5F8009098
:101A7000D8F81030B34201D101F0CCF989F31188C4
:101A8000D5E9033128469847302383F311886B69E1
:101A9000002BD8D001F0AEF96A69A0EB04094A45E1
:101AA00082460DD2022001F003FA0022D8F810304D
:101AB000B34208D151462846BDE8F047FFF728BF9A
:101AC000121A2244F2E712EB090938BF4A462946A6
:101AD0003846FFF7EBFEB5E7D8F81030B34208D030
:101AE0001444211AC8F81C00A960BDE8F047FFF7AC
:101AF000F3BEBDE8F08700BFA82300209823002094
:101B000000207047FEE70000704700004FF0FF30F4
:101B10007047000002290CD0032904D0012907488E
:101B200018BF00207047032A05D8054800EBC20003
:101B30007047044870470020704700BF1834000801
:101B400020220020CC33000870B59AB00546084624
:101B500001A9144600F0C2F801A8FFF7B3F8431C2E
:101B60005B00C5E900340022237003236370C6B212
:101B700001AB02341046D1B28E4204F1020401D806
:101B80001AB070BD13F8011B04F8021C04F8010C14
:101B90000132F0E708B5302383F311880348FFF7DB
:101BA00049FA002383F3118808BD00BF08260020EE
:101BB00090F8443003F01F02012A07D190F8452025
:101BC0000B2A03D10023C0E90E3315E003F06003B4
:101BD000202B08D1B0F848302BB990F84520212AA5
:101BE00003D81F2A04D8FFF707BA222AEBD0FAE756
:101BF000034A82630722C26303640120704700BF67
:101C00001822002007B5052917D8DFE801F01916BA
:101C100003191920302383F31188104A0190012100
:101C2000FFF7AAFA01980E4A0221FFF7A5FA0D481C
:101C3000FFF7CCF9002383F3118803B05DF804FBB0
:101C4000302383F311880748FFF796F9F2E7302332
:101C500083F311880348FFF7ADF9EBE76C33000815
:101C6000903300080826002038B50C4D0C4C0D4967
:101C70002A4604F10800FFF767FF05F1CA0204F1E4
:101C800010000949FFF760FF05F5CA7204F118005A
:101C90000649BDE83840FFF757BF00BFD02A0020F3
:101CA000202200205033000855330008603300081C
:101CB00070B5044608460D46FFF704F8C6B2204644
:101CC000013403780BB9184670BD32462946FEF739
:101CD000E5FF0028F3D10120F6E700002DE9F047E9
:101CE00005460C46FEF7EEFF2B49C6B22846FFF725
:101CF000DFFF08B10A36F6B228492846FFF7D8FFB9
:101D000008B11036F6B2632E0BD8DFF88C80DFF8FE
:101D10008C90234FDFF894A02E7846B92670BDE84A
:101D2000F08729462046BDE8F04701F0B1BA252EDC
:101D30002ED1072241462846FEF7B0FF70B9194B55
:101D4000224603F1100153F8040B42F8040B8B42B6
:101D5000F9D11B78137007351134DDE708224946A5
:101D60002846FEF79BFF98B90F4BA21C197809096A
:101D70000232C95D02F8041C13F8011B01F00F01C7
:101D80005345C95D02F8031CF0D118340835C3E788
:101D900004F8016B0135BFE73834000860330008F0
:101DA0005234000840340008107AFF1F1C7AFF1FCD
:101DB000BFF34F8F024AD368DB03FCD4704700BFE8
:101DC000003C024008B5094B1B7873B9FFF7F0FFE0
:101DD000074B1A69002ABFBF064A5A6002F18832CF
:101DE0005A601A6822F480621A6008BD2E2D002005
:101DF000003C02402301674508B50B4B1B7893B9A3
:101E0000FFF7D6FF094B1A6942F000421A611A68BF
:101E100042F480521A601A6822F480521A601A68DA
:101E200042F480621A6008BD2E2D0020003C024062
:101E30000B28F0B516D80C4C0C4923787BB90C4D07
:101E40000E460C234FF0006255F8047B46F8042B35
:101E5000013B13F0FF033A44F6D10123237051F8FC
:101E60002000F0BD0020FCE7602D0020302D002078
:101E700064340008014B53F82000704764340008B4
:101E80000C2070470B2810B5044601D9002010BD66
:101E9000FFF7CEFF064B53F824301844C21A0BB993
:101EA0000120F4E712680132F0D1043BF6E700BFED
:101EB000643400080B2810B5044621D8FFF778FFDA
:101EC000FFF780FF0F4AF323D360C300DBB243F474
:101ED000007343F002031361136943F48033136109
:101EE000FFF766FFFFF7A4FF074B53F8241000F03D
:101EF000D9F8FFF781FF2046BDE81040FFF7C2BFC9
:101F0000002010BD003C024064340008F8B512F017
:101F10000103144642D18218B2F1016F57D82D4BFC
:101F20001B6813F0010352D02B4DFFF74BFFF32337
:101F3000EB60FFF73DFF40F20127032C15D824F09A
:101F400001046618244C401A40F20117B14223697B
:101F500000EB010524D123F001032361FFF74CFFBF
:101F60000120F8BD043C0430E7E78307E7D12B6983
:101F700023F440732B612B693B432B6151F8046BB5
:101F80000660BFF34F8FFFF713FF03689E42E9D04F
:101F90002B6923F001032B61FFF72EFF0020E0E700
:101FA00023F44073236123693B4323610B882B8017
:101FB000BFF34F8FFFF7FCFE2D8831F8023BADB227
:101FC000AB42C3D0236923F001032361E4E7184641
:101FD000C7E700BF00380240003C0240084908B58E
:101FE0000B7828B11BB9FFF7EDFE01230B7008BD7C
:101FF000002BFCD0BDE808400870FFF7FDBE00BF15
:102000002E2D002010B50244064BD2B2904200D1D2
:1020100010BD441C00B253F8200041F8040BE0B29C
:10202000F4E700BF502800400F4B30B51C6F24046C
:1020300007D41C6F44F400741C671C6F44F4004404
:102040001C670A4C236843F4807323600244084BE6
:10205000D2B2904200D130BD441C00B251F8045BB2
:1020600043F82050E0B2F4E700380240007000402E
:102070005028004007B5012201A90020FFF7C2FF48
:10208000019803B05DF804FB13B50446FFF7F2FFB7
:10209000A04205D0012201A900200194FFF7C4FF4E
:1020A00002B010BD70470000034B1A681AB9034A0A
:1020B000D2F874281A607047642D00200030024066
:1020C00008B5FFF7F1FF024B1868C0F3407008BD78
:1020D000642D00207047000070470000704700002A
:1020E000FEE700000A4B0B480B4A90420BD30B4B08
:1020F000DA1C121AC11E22F003028B4238BF0022E2
:102100000021FEF7E7BD53F8041B40F8041BECE781
:1021100010360008E02D0020E02D0020E02D0020EA
:1021200070B5D0E915439E6800224FF0FF3504EBEF
:1021300042135101D3F800090028BEBFD3F80009AB
:1021400040F08040C3F80009D3F8000B0028BEBF60
:10215000D3F8000B40F08040C3F8000B0132631845
:102160009642C3F80859C3F8085BE0D24FF0011358
:10217000C4F81C3870BD0000890141F020010161E4
:1021800003699B06FCD41220FFF712BB10B5054C67
:102190002046FEF7D1FF4FF0A0436365024BA365D5
:1021A00010BD00BF682D0020B834000870B503785A
:1021B000012B054650D12A4B446D98421BD1294B27
:1021C0005A6B42F080025A635A6D42F080025A659F
:1021D0005A6D5A6942F080025A615A6922F08002AF
:1021E0005A610E2143205B6900F022FC1E4BE36024
:1021F0001E4BC4F800380023C4F8003EC0232360FF
:102200006E6D4FF45023A3633369002BFCDA012376
:1022100033610C20FFF7CCFA3369DB07FCD41220C2
:10222000FFF7C6FA3369002BFCDA0026A6602846C1
:10223000FFF776FF6B68C4F81068DB68C4F81468B1
:10224000C4F81C684BB90A4BA3614FF0FF336361BC
:10225000A36843F00103A36070BD064BF4E700BF21
:10226000682D002000380240401400400300200286
:10227000003C30C0083C30C0F8B5446D0546002134
:102280002046FFF779FFA96D00234FF001128F68F8
:10229000C4F834384FF00066C4F81C284FF0FF3003
:1022A00004EB431201339F42C2F80069C2F8006B8D
:1022B000C2F80809C2F8080BF2D20B686A6DEB6528
:1022C000636210231361166916F01006FBD1122009
:1022D000FFF76EFAD4F8003823F4FE63C4F8003830
:1022E000A36943F4402343F01003A3610923C4F816
:1022F0001038C4F814380A4BEB604FF0C043C4F8F0
:10230000103B084BC4F8003BC4F81069C4F800390E
:10231000EB6D03F1100243F48013EA65A362F8BD8C
:102320009434000840800010426D90F84E10D2F8AE
:10233000003823F4FE6343EA0113C2F80038704703
:102340002DE9F84300EB8103456DDA68166806F065
:102350000306731E022B05EB41130C4680460FFA51
:1023600081F94FEA41104FF00001C3F8101B4FF004
:10237000010104F1100398BFB60401FA03F3916957
:102380008EBF334E06F1805606F5004600293AD03E
:10239000578A04F15801490137436F50D5F81C188A
:1023A0000B43C5F81C382B180021C3F810195369CA
:1023B0000127611EA7409BB3138A928B9B08012AB9
:1023C00088BF5343D8F85C20981842EA034301F1D0
:1023D000400205EB8202C8F85C00214653602846A3
:1023E000FFF7CAFE08EB8900C3681B8A43EA8453DF
:1023F000483464011E432E51D5F81C381F43C5F8DC
:102400001C78BDE8F88305EB4917D7F8001B21F4C9
:102410000041C7F8001BD5F81C1821EA0303C0E7E8
:1024200004F13F0305EB83030A4A5A60284621461C
:10243000FFF7A2FE05EB4910D0F8003923F4004362
:10244000C0F80039D5F81C3823EA0707D7E700BFE2
:102450000080001000040002826D1268C265FFF760
:102460005FBE00005831436D49015B5813F40040D2
:1024700004D013F4001F0CBF02200120704700009D
:102480004831436D49015B5813F4004004D013F404
:10249000001F0CBF022001207047000000EB8101EB
:1024A000CB68196A0B6813604B6853607047000073
:1024B00000EB810330B5DD68AA691368D36019B9F0
:1024C000402B84BF402313606B8A1468426D1C4408
:1024D000013CB4FBF3F46343033323F0030302EB47
:1024E000411043EAC44343F0C043C0F8103B2B689B
:1024F00003F00303012B09B20ED1D2F8083802EB26
:10250000411013F4807FD0F8003B14BF43F0805398
:1025100043F00053C0F8003B02EB4112D2F8003BFD
:1025200043F00443C2F8003B30BD00002DE9F04108
:10253000244D6E6D06EB40130446D3F8087BC3F8B8
:10254000087B38070AD5D6F81438190706D505EBE5
:1025500084032146DB6828465B689847FA071FD545
:10256000D6F81438DB071BD505EB8403D968CCB942
:102570008B69488A5A68B2FBF0F600FB16228AB9CA
:102580001868DA6890420DD2121AC3E90024302389
:1025900083F311880B482146FFF78AFF84F31188E3
:1025A000BDE8F081012303FA04F26B8923EA0203F8
:1025B0006B81CB68002BF3D021460248BDE8F04187
:1025C000184700BF682D002000EB810370B5DD685F
:1025D000436D6C692668E6604A0156BB1A444FF4A5
:1025E0000020C2F810092A6802F00302012A0AB288
:1025F0000ED1D3F8080803EB421410F4807FD4F80E
:10260000000914BF40F0805040F00050C4F80009A9
:1026100003EB4212D2F8000940F00440C2F800096E
:10262000D3F83408012202FA01F10143C3F8341847
:1026300070BD19B9402E84BF4020206020682E8ACA
:102640008419013CB4FBF6F440EAC44040F0005069
:102650001A44C6E72DE9F8433B4D6E6D06EB401377
:102660000446D3F80889C3F8088918F0010F4FEA27
:1026700040171AD0D6F81038DB0716D505EB8003C3
:10268000D9684B691868DA68904230D2121A4FF054
:1026900000091A60C3F80490302383F3118821469F
:1026A0002846FFF791FF89F3118818F0800F1CD09E
:1026B000D6F834380126A640334216D005EB840301
:1026C0006D6DD3F80CC0DCF814200134E4B2D2F8FC
:1026D00000E005EB04342F445168714515D3D5F85B
:1026E000343823EA0606C5F83468BDE8F8830123C8
:1026F00003FA04F22B8923EA02032B818B68002B57
:10270000D3D0214628469847CFE7BCF81000AEEB5F
:102710000103834228BF0346D7F8180980B2B3EB00
:10272000800FE2D89068A0F1040959F8048FC4F82A
:102730000080A0EB09089844B8F1040FF5D81844BC
:102740000B4490605360C7E7682D00202DE9F74FD8
:10275000A24C656D6E69AB691E4016F480586E61BF
:1027600007D02046FEF750FD03B0BDE8F04F00F063
:102770004DBC002E12DAD5F8003E98489B071EBFCC
:10278000D5F8003E23F00303C5F8003ED5F8043821
:1027900023F00103C5F80438FEF760FD370505D5C1
:1027A0008E48FFF7BDFC8D48FEF746FDB0040CD502
:1027B000D5F8083813F0060FEB6823F470530CBFFC
:1027C00043F4105343F4A053EB6031071BD5636807
:1027D000DB681BB9AB6923F00803AB612378052BD9
:1027E0000CD1D5F8003E7D489A071EBFD5F8003EB3
:1027F00023F00303C5F8003EFEF730FD6368DB6895
:102800000BB176489847F30274D4B70227D5D4F8B1
:102810005490DFF8C8B100274FF0010A09EB4712C6
:10282000D2F8003B03F44023B3F5802F11D1D2F846
:10283000003B002B0DDA62890AFA07F322EA030350
:10284000638104EB8703DB68DB6813B139465846C4
:102850009847A36D01379B68FFB29F42DED9F0060F
:1028600017D5676D3A6AC2F30A1002F00F0302F43B
:10287000F012B2F5802F00F08580B2F5402F08D11C
:1028800004EB83030022DB681B6A07F58057904244
:102890006AD13003D5F8184813D5E10302D50020DA
:1028A000FFF744FEA20302D50120FFF73FFE6303BA
:1028B00002D50220FFF73AFE270302D50320FFF7D7
:1028C00035FE75037FF550AFE00702D50020FFF716
:1028D000C1FEA10702D50120FFF7BCFE620702D5A9
:1028E0000220FFF7B7FE23077FF53EAF0320FFF777
:1028F000B1FE39E7636DDFF8E4A0019300274FF0E4
:102900000109A36D9B685FFA87FB9B453FF67DAF8E
:10291000019B03EB4B13D3F8001901F44021B1F5EF
:10292000802F1FD1D3F8001900291BDAD3F8001922
:1029300041F09041C3F80019D3F800190029FBDBDE
:102940005946606DFFF718FC218909FA0BF321EA5B
:102950000303238104EB8B03DB689B6813B15946A7
:10296000504698470137CCE7910708BFD7F8008059
:10297000072A98BF03F8018B02F1010298BF4FEAC2
:10298000182884E7023304EB830207F58057526866
:10299000D2F818C0DCF80820DCE9001CA1EB0C0C14
:1029A000002188420AD104EB830463689B699A681A
:1029B00002449A605A6802445A606AE711F0030FB1
:1029C00008BFD7F800808C4588BF02F8018B01F161
:1029D000010188BF4FEA1828E3E700BF682D0020F7
:1029E000436D03EB4111D1F8003B43F40013C1F8F0
:1029F000003B7047436D03EB4111D1F8003943F4BC
:102A00000013C1F800397047436D03EB4111D1F851
:102A1000003B23F40013C1F8003B7047436D03EB08
:102A20004111D1F8003923F40013C1F8003970477F
:102A300000F1604303F561430901C9B283F8001353
:102A4000012200F01F039A4043099B0003F16043F9
:102A500003F56143C3F880211A60704730B5039CC9
:102A60000172043304FB0325C0E90653049B03638E
:102A70000021059BC160C0E90000C0E90422C0E953
:102A80000842C0E90A11436330BD0000416A0022D8
:102A9000C0E90411C0E90A22C2606FF00101FEF72B
:102AA000F7BE0000D0E90432934201D1C2680AB9EE
:102AB000181D70470020704703691960C268013211
:102AC000C260C269134482690361934224BF436AAE
:102AD00003610021FEF7D0BE38B504460D46E36819
:102AE0003BB16269131D1268A3621344E3620020C4
:102AF00007E0237A33B929462046FEF7ADFE0028C9
:102B0000EDDA38BD6FF00100FBE70000C368C26971
:102B1000013BC3604369134482694361934224BF0C
:102B2000436A436100238362036B03B11847704714
:102B300070B53023044683F31188866A3EB9FFF7E7
:102B4000CBFF054618B186F31188284670BDA36AED
:102B5000E26A13F8015BA362934202D32046FFF7B7
:102B6000D5FF002383F31188EFE700002DE9F84F2C
:102B700004460E46174698464FF0300989F31188EF
:102B80000025AA46D4F828B0BBF1000F09D1414670
:102B90002046FFF7A1FF20B18BF311882846BDE83E
:102BA000F88FD4E90A12A7EB050B521A934528BFF8
:102BB0009346BBF1400F1BD9334601F1400251F857
:102BC000040B43F8040B9142F9D1A36A4033403619
:102BD000A3624035D4E90A239A4202D32046FFF784
:102BE00095FF8AF31188BD42D8D289F31188C9E7CD
:102BF00030465A46FEF748F8A36A5B445E44A36237
:102C00005D44E7E710B5029C0172043303FB042125
:102C1000C0E906130023C0E90A33039B0363049B46
:102C2000C460C0E90000C0E90422C0E9084243636F
:102C300010BD0000026AC260426AC0E9042200229C
:102C4000C0E90A226FF00101FEF722BED0E9042399
:102C50009A4201D1C26822B9184650F8043B0B6071
:102C6000704700231846FAE7C368C2690133C3609E
:102C70004369134482694361934224BF436A4361B9
:102C80000021FEF7F9BD000038B504460D46E368A3
:102C90003BB123691A1DA262E2691344E36200207A
:102CA00007E0237A33B929462046FEF7D5FD0028F0
:102CB000EDDA38BD6FF00100FBE700000369196031
:102CC000C268013AC260C2691344826903619342D7
:102CD00024BF436A036100238362036B03B1184777
:102CE0007047000070B530230D460446114683F34B
:102CF0001188866A2EB9FFF7C7FF10B186F31188D5
:102D000070BDA36A1D70A36AE26A01339342A36295
:102D100004D3E16920460439FFF7D0FF002080F397
:102D20001188EDE72DE9F84F04460D469046994687
:102D30004FF0300A8AF311880026B346A76A4FB9CC
:102D400049462046FFF7A0FF20B187F3118830469F
:102D5000BDE8F88FD4E90A073A1AA8EB06079742AC
:102D600028BF1746402F1BD905F1400355F8042B07
:102D700040F8042B9D42F9D1A36A4033A362403648
:102D8000D4E90A239A4204D3E16920460439FFF7C3
:102D900095FF8BF311884645D9D28AF31188CDE788
:102DA00029463A46FDF770FFA36A3B443D44A362BF
:102DB0003E44E5E7D0E904239A4217D1C3689BB1AA
:102DC000836A8BB1043B9B1A0ED01360C368013B2E
:102DD000C360C3691A44836902619A4224BF436A8B
:102DE0000361002383620123184670470023FBE739
:102DF00000F036B9014B586A704700BF000C004024
:102E0000034B002258631A610222DA60704700BF48
:102E1000000C0040014B0022DA607047000C0040BB
:102E2000014B5863704700BF000C0040FEE70000F4
:102E300070B51B4B01630025044686B0586085625F
:102E40000E4600F0BFF804F11003C4E904334FF05C
:102E5000FF33C4E90635C4E90044A560E562FFF725
:102E6000C9FF2B460246C4E9082304F134010D4A88
:102E7000256580232046FEF7A5FC0123E0600A4A71
:102E80000375009272680192B268CDE90223074B84
:102E90006846CDE90435FEF7BDFC06B070BD00BF45
:102EA00000260020C4340008C93400082D2E000874
:102EB000024AD36A1843D062704700BF98230020AB
:102EC0004B6843608B688360CB68C3600B69436168
:102ED0004B6903628B6943620B68036070470000B3
:102EE00008B5264B26481A6940F2FF110A431A61B9
:102EF0001A6922F4FF7222F001021A611A691A6B30
:102F00000A431A631A6D0A431A651E4A1B6D11465D
:102F1000FFF7D6FF02F11C0100F58060FFF7D0FF3C
:102F200002F1380100F58060FFF7CAFF02F1540199
:102F300000F58060FFF7C4FF02F1700100F58060CA
:102F4000FFF7BEFF02F18C0100F58060FFF7B8FFCC
:102F500002F1A80100F58060FFF7B2FF02F1C401A1
:102F600000F58060FFF7ACFF02F1E00100F5806042
:102F7000FFF7A6FFBDE8084000F0F0B800380240B7
:102F800000000240D034000808B500F06FF9FEF7E9
:102F9000F7FBFFF789F8BDE80840FEF765BE0000C3
:102FA00070470000EFF3098305494A6B22F00102E4
:102FB0004A63683383F30988002383F311887047D9
:102FC00000EF00E0302080F3118862B60C4B0D4A10
:102FD000D96821F4E0610904090C0A43DA60D3F8E6
:102FE000FC20094942F08072C3F8FC200A6842F0D4
:102FF00001020A602022DA7783F82200704700BFBE
:1030000000ED00E00003FA05001000E010B53023E9
:1030100083F311880E4B5B6813F4006314D0F1EE58
:10302000103AEFF30984683C4FF08073E361094B79
:10303000DB6B236684F30988FEF77CFB10B1064B3B
:10304000A36110BD054BFBE783F31188F9E700BFCF
:1030500000ED00E000EF00E02F030008320300085D
:103060000E4B1A6C42F008021A641A6E42F0080203
:103070001A660B4A1B6E936843F008039360094B72
:1030800053229A624FF0FF32DA6200229A615A6349
:10309000DA605A6001225A611A60704700380240B3
:1030A000002004E0000C0040094A08B51169D3680B
:1030B0000B40D9B2C9439B07116107D5302383F375
:1030C0001188FEF773FB002383F3118808BD00BF4E
:1030D000000C00401F4B1A696FEAC2526FEAD252CD
:1030E0001A611A69C2F308021A614FF0FF301A69B7
:1030F0005A69586100215A6959615A691A6A62F01D
:1031000080521A621A6A02F080521A621A6A5A6A65
:1031100058625A6A59625A6A1A6C42F080521A64AA
:103120001A6E42F080521A661A6E0B4A106840F40A
:1031300080701060186F00F44070B0F5007F1EBF03
:103140004FF4803018671967536823F40073536095
:1031500000F088B80038024000700040344B4FF057
:1031600080521A64334A4FF4404111601A6842F0A9
:1031700001021A601A689107FCD59A6822F00302CE
:103180009A602B4B9A6812F00C02FBD1196801F07F
:10319000F90119609A601A6842F480321A601A685C
:1031A0009203FCD55A6F42F001025A67204B5A6FC6
:1031B0009007FCD5204A5A601A6842F080721A6063
:1031C0001C4A53685904FCD5194B1A689201FCD566
:1031D0001A4A9A600322C3F88C20194B1A68194BBB
:1031E0009A42194B21D1194A1168194A91421CD1AE
:1031F00040F205121A60144A136803F00F03052BFE
:10320000FAD10B4B9A6842F002029A609A6802F077
:103210000C02082AFAD15A6C42F480425A645A6E5F
:1032200042F480425A665B6E704740F20572E1E7F5
:10323000003802400070004008544007009488386D
:10324000002004E011640020003C024000ED00E09A
:1032500041C20F4108B5FFF727FFBDE80840FFF75F
:10326000D5BE000007213220FFF7E2BB08B5FFF70B
:1032700031FF00F00BF8FDF75DFFFDF735FEFFF7BE
:103280008FFEBDE80840FFF7B3BD000070470000A7
:10329000034611F8012B03F8012B002AF9D17047DE
:1032A00012100000121100001213000053544D338D
:1032B00032463F3F3F0053544D333246343078005E
:1032C00053544D3332463432780053544D333246E2
:1032D00034343658580000000120330000104100FB
:1032E00001105A00031059000710310000000000BF
:1032F000AC32000813040000B632000819040000C4
:10330000C032000821040000CA320008000000009A
:10331000650E0008510E00088D0E0008790E000899
:10332000850E0008710E00085D0E0008490E0008A9
:10333000990E0008000000000100000000000000DD
:103340006330000040330008F023002000260020F6
:1033500043534B590025424F415244252D424C00C6
:103360002553455249414C25000000000200000051
:103370000000000081100008ED100008400040002F
:10338000A02A0020B02A0020020000000000000057
:1033900003000000000000003111000800000000E0
:1033A00010000000C02A0020000000000100000002
:1033B00000000000682D002001010200051C00082B
:1033C000151B0008B11B0008951B000843000000F6
:1033D000D433000809024300020100C0320904008E
:1033E0000001020201000524001001052401000172
:1033F000042402020524060001070582030800FFD9
:1034000009040100020A0000000705010240000053
:10341000070581024000000012000000203400086F
:10342000120110010200004009124157000201027E
:10343000030100000403090425424F4152442500C2
:1034400043534B595F41564547414C4954455230CF
:103450003300303132333435363738394142434422
:103460004546000000400000004000000040000011
:103470000040000000000100000002000000020007
:103480000000020000000200000002000000020034
:103490000000020000000000751200082D15000851
:1034A000D915000840004000C82D0020C82D00207C
:1034B00001000000D82D0020800000004001000025
:1034C000030000006D61696E0069646C65000000B6
:1034D0000000800200000000AAAAAAAA00000000C2
:1034E000FFFF00000000000000A00A000000000133
:1034F00000000000AAAAAAAA00000001FFFF000025
:1035000000000000000000000400000000000000B7
:10351000AAAAAAAA00000000FDFF00000000000007
:10352000000000000040000000000000AAAAAAAAB3
:1035300000400000FFFF000000000000000000004D
:103540000000000000000000AAAAAAAA00000000D3
:10355000FFFF00000000000000000000400100002C
:1035600000000000AAAAAAAA00010000F7FF0000BC
:10357000000000000000000000000000000000004B
:10358000AAAAAAAA00000000FFFF00000000000095
:103590000000000000000000000000000A00000021
:1035A0000000000003000000000000000000000018
:1035B000000000000000000000000000000000000B
:1035C000000000000000000000000000FFFFFFFFFF
:1035D000720400000000000000000F000000000066
:1035E000FF009600000000080096000000000800A0
:1035F0000400000034340008000000000000000057
:1036000000000000000000000000000000000000BA
:00000001FF
